:100000000C9448190C9472190C9472190C9472196E
:100010000C9472190C9472190C9472190C94721934
:100020000C9472190C9472190C9472190C94721924
:100030000C9472190C94A34C0C9472190C947219B0
:100040000C9472190C9436480C94B9CD0C94721916
:100050000C94A5980C9472190C9472190C94721942
:100060000C9472190C9472190C9472190C947219E4
:100070000C9472190C9472190C9472190C947219D4
:100080000C9472190C9472190C947219084AD73B8B
:100090003BCE016E84BCBFFDC12F3D6C74319ABD57
:1000A00056833DDA3D00C77F11BED9E4BB4C3E917B
:1000B0006BAAAABE000000803F05A84CCDB2D44E6A
:1000C000B93836A9020C50B9918688083CA6AAAA6C
:1000D0002ABE000000803F004E414E494E4954590F
:1000E000494E46CDCCCC3D0AD7233C17B7D1387703
:1000F000CC2B329595E6241FB14F0A000020410019
:1001000000C84200401C4620BCBE4CCA1B0E5AAE62
:10011000C59D7400407A10F35A00A0724E18090071
:1001200010A5D4E80000E87648170000E40B54025C
:100130000000CA9A3B000000E1F505000080969897
:1001400000000040420F000000A0860100000010E7
:100150002700000000E80300000000640000000029
:10016000000A00000000000100000000002C76D80A
:1001700088DC674F0823DFC1DFAE59E1B1B796E5F0
:10018000E3E453C63AE651997696E8E6C28426EB54
:10019000898C9B62ED407C6FFCEFBC9C9F40F2BA67
:1001A000A56FA5F490055A2AF75C936B6CF9676DFF
:1001B000C11BFCE0E40D47FEF520E6B500D0ED9054
:1001C0002E0300943577050080841E080000204E21
:1001D0000A000000C80C333333330F986E128311BA
:1001E00041EF8D2114893BE65516CFFEE6DB18D191
:1001F000844B381BF77C1D901DA4BBE42420328463
:10020000725E228100C9F124ECA1E53D2770012C2A
:100210000190012701B0012201C0011D01F0011868
:10022000011002130130020E016002090190020464
:1002300001C002FF000003FA004003F5008003F054
:1002400000D003EB002004E6007004E100E004DCD1
:10025000004005D700C005D2004006CD00D006C83A
:10026000008007C3003008BE00F008B900C009B420
:1002700000B00AAF00B00BAA00D00CA500000EA081
:1002800000500F9B00C01096005012910000148C7B
:1002900000C0158700B0178200B0197D00D01B7810
:1002A00000001E730040206E0090226900F024645C
:1002B0000040275F0090295A00E02B5500102E5077
:1002C0000020304B0010324600E033410090353CB6
:1002D000001037370070383200A0392D00B03A28AE
:1002E00000A03B2300603C1E00103D1900903D140F
:1002F00000103E0F00703E0A00C03E0500003F00A7
:1003000000403FFBFF803FF6FFC03FF1FFD00700FA
:1003100000D00700006400000010270000000096D5
:1003200043000096430000E040000020420000A08F
:10033000420000A0420080FC440000BD4220204D4D
:10034000383531205A005A2D50726F6265204F6641
:100350006673657420286D6D293A0A0020440020D8
:10036000490020204D333031205000504944207343
:10037000657474696E67733A0A0020460020420073
:1003800020480020204D3134352053004D617465E4
:100390007269616C2068656174757020706172614A
:1003A0006D65746572733A0A0020204D3432302036
:1003B00053004175746F20426564204C6576656C0E
:1003C000696E673A0A00205A0020590020204D32F9
:1003D0003036205800486F6D65206F66667365740F
:1003E0003A0A00204500205A0020590020580020D9
:1003F000420020540020204D32303520530041640B
:1004000076616E6365643A20533C6D696E5F666524
:100410006564726174653E20543C6D696E5F7472F0
:100420006176656C5F66656564726174653E2042E5
:100430003C6D696E5F7365676D656E745F74696D41
:10044000655F6D733E20583C6D61785F78795F6AB7
:1004500065726B3E205A3C6D61785F7A5F6A6572A7
:100460006B3E20453C6D61785F655F6A65726B3EEF
:100470000A0020540020520020204D3230342050F9
:1004800000416363656C65726174696F6E202875E5
:100490006E6974732F7332293A20503C7072696E02
:1004A000745F616363656C3E20523C726574726177
:1004B00063745F616363656C3E20543C7472617663
:1004C000656C5F616363656C3E0A00204500205ADD
:1004D0000020590020204D3230312058004D6178E5
:1004E000696D756D20416363656C65726174696FD8
:1004F0006E2028756E6974732F7332293A0A0020B2
:100500004500205A0020590020204D323033205819
:10051000004D6178696D756D206665656472617402
:1005200065732028756E6974732F73293A0A002049
:100530004500205A0020590020204D393220580013
:1005400053746570732070657220756E69743A0A11
:100550000020204D3230302044300A0020204D321F
:1005600030302044002044697361626C65640A0085
:1005700046696C616D656E742073657474696E672D
:10058000733A0020204D3134392043203B20556EF2
:1005900069747320696E2043656C736975730A0012
:1005A0002020473231202020203B20556E69747373
:1005B00020696E206D6D0A0020746F6F206C6F6E65
:1005C0006720657874727573696F6E2070726576D6
:1005D000656E7465640A0020636F6C6420657874CE
:1005E000727573696F6E2070726576656E7465647E
:1005F0000A0024F4D43050C38E20C2A24017828B4C
:100600007011127A910D816CD90AA861E108C7585E
:100610006607615143061E4B5D05C145A7041A419B
:100620001104093D9803713931034036DB0265330B
:100630009102D4305402802E1D02632CEE01752AE3
:10064000C501B028A001102781018F2564012B244A
:100650004B01E0223401AC211F018D200D01801FD0
:10066000FC00841EED00971DDF00B81CD200E61BC5
:10067000C600201BBC00641AB200B219A8000A19F7
:10068000A0006A189900D117910040178B00B51689
:10069000840031167E00B31579003A157300C71433
:1006A0006F0058146A00EE13660088136300251368
:1006B0005E00C7125B006C12570015125400C11186
:1006C000510070114F0021114B00D61049008D10C0
:1006D00047004610440002104200C00F4000800F47
:1006E0003E00420F3C00060F3B00CB0E3800930E3D
:1006F00037005C0E3500270E3400F30D3200C10DBB
:100700003100900D3000600D2E00320D2D00050DD2
:100710002C00D90C2B00AE0C2900850C29005C0C98
:100720002700350C27000E0C2600E80B2400C40B14
:100730002400A00B23007D0B23005A0B2100390B52
:100740002100180B2000F80A1F00D90A1E00BB0A5E
:100750001E009D0A1D00800A1D00630A1C00470A36
:100760001B002C0A1B00110A1A00F7091A00DD09E8
:100770001900C4091900AB091900920917007B0977
:100780001800630917004C091600360916002009E5
:1007900016000A091500F5081500E0081400CC0839
:1007A0001400B8081400A4081400900813007D0871
:1007B00012006B0813005808120046081200340893
:1007C0001100230811001208110001081100F007A0
:1007D0001000E0071000D0071000C0071000B0079D
:1007E0000F00A107100091070E0083070F00740788
:1007F0000F0065070E0057070E0049070E003B0764
:100800000D002E070E0020070D0013070D00060730
:100810000D00F9060C00ED060D00E0060C00D406F4
:100820000C00C8060C00BC060C00B0060C00A406A8
:100830000B0099060C008D060B0082060B00770654
:100840000B006C060B0061060A0057060B004C06F5
:100850000A0042060A0038060A002E060A0024068C
:100860000A001A060A001006090007060A00FD051C
:100870000900F4050900EB050900E2050900D905A6
:100880000900D0050900C7050900BE050900B50526
:100890000800AD050800A50509009C0508009405A1
:1008A00008008C050800840508007C050800740514
:1008B00008006C050700650508005D050700560582
:1008C00008004E05070047050700400508003805E9
:1008D0000700310507002A050700230507001C054E
:1008E0000600160507000F050700080506000205AB
:1008F0000700FB040600F5040700EE040600E80408
:100900000600E2040700DB040600D5040600CF045D
:100910000600C9040600C3040600BD040600B704AF
:100920000600B1040500AC040600A6040600A004FD
:1009300005009B04060095040500900406008A0447
:10094000050085040500800406007A04050075048E
:100950000500700405006B040500660405006104D1
:1009600005005C04050057040500520405004D0411
:10097000050048040500430405003E0404003A0451
:10098000050035040500300404002C04050027048C
:100990000400230405001E0404001A0404001604C5
:1009A0000500110404000D040400090405000404FA
:1009B000040000040400FC030400F8030400F40332
:1009C0000400F0030400EC030400E8030400E40363
:1009D0000400E0030400DC030400D8030400D40393
:1009E0000400D0030400CC030400C8030300C503C3
:1009F000030024F404D9201BC40C5C0E9804C40921
:100A00005F0265077101F405F900FB04B3004804B7
:100A10008700C10369005803550003034500BE0267
:100A20003A008402310053022A0029022500040200
:100A30002000E4011C00C8011900AF011700980153
:100A400014008401130071011000610110005101B4
:100A50000E0043010D0036010B002B010B0020019D
:100A60000B00150109000C01090003010800FB003F
:100A70000800F3000800EB000700E4000600DE00B9
:100A80000600D8000600D2000600CC000500C70012
:100A90000500C2000500BD000400B9000400B50057
:100AA0000400B1000400AD000400A9000400A5008A
:100AB0000300A20003009F0004009B0003009800B5
:100AC00003009500020093000300900003008D00D6
:100AD00002008B00030088000200860002008400F0
:100AE0000300810002007F0002007D0002007B0005
:100AF0000200790002007700010076000200740015
:100B0000020072000100710002006F0002006D001F
:100B100001006C0002006A00010069000200670029
:100B2000010066000100650001006400020062002F
:100B3000010061000100600001005F0002005D0033
:100B400001005C0001005B0001005A000100590037
:100B50000100580001005700010056000100550037
:100B60000100540001005300000053000100520036
:100B7000010051000100500001004F0001004E0033
:100B800000004E0001004D0001004C0001004B0030
:100B900000004B0001004A0001004900010048002C
:100BA0000000480001004700010046000000460028
:100BB0000100450000004500010044000100430021
:100BC000000043000100420000004200010041001B
:100BD000000041000100400001003F0000003F0014
:100BE00001003E0000003E0001003D0000003D000D
:100BF00001003C0000003C0000003C0001003B0004
:100C000000003B0001003A0000003A0001003900FA
:100C100000003900010038000000380000003800F2
:100C200001003700000037000100360000003600E8
:100C300000003600010035000000350000003500DE
:100C400001003400000034000000340001003300D3
:100C500000003300000033000100320000003200C9
:100C600000003200010031000000310000003100BE
:100C700001003000000030000000300001002F00B3
:100C800000002F0000002F0000002F0001002E00A8
:100C900000002E0000002E0001002D0000002D009D
:100CA00000002D0000002D0001002C0000002C0091
:100CB00000002C0000002C0001002B0000002B0085
:100CC00000002B0000002B0001002A0000002A0079
:100CD00000002A0000002A0001002900000029006D
:100CE0000000290000002900000029000100280060
:100CF0000000280000002800000028000000280054
:100D00000100270000002700000027000000270046
:100D10000000270001002600000026000000260039
:100D2000000026000000260001002500000025002C
:100D3000000025000000250000002500000025001F
:100D40000100240000002400000024000000240012
:100D50000000240001002300000023000000230005
:100D600000002300000023000000230000002300F7
:100D700001002200000022000000220000002200EA
:100D800000002200000022000100210000002100DC
:100D900000002100000021000000210000002100CF
:100DA00000002100010020000000200000002000C1
:100DB00000002000000020000000200000002000B3
:100DC0000000200001001F0000001F0000001F00A5
:100DD00000001F0000001F0000001F0000001F0097
:100DE00001001E0000001E0000001E0000001E008A
:100DF00000004D383420582059205A2045006265A3
:100E0000640A002C2073797374656D2073746F709D
:100E100070656421204865617465725F49443A20B9
:100E200000544845524D414C2052554E415741596E
:100E300000546865726D616C2052756E61776179DE
:100E40000048656174696E67206661696C6564005D
:100E500048656174696E67206661696C6564004508
:100E600072723A204D494E54454D50004D494E54F2
:100E7000454D5020747269676765726564004572FC
:100E8000723A204D415854454D50004D41585445FB
:100E90004D50207472696767657265640025753A04
:100EA0002530327500253032753A253032750025EF
:100EB000756420253032753A25303275005A005954
:100EC00000580009200000000000000000000000A1
:100ED00000007FFFE00000000000000000000000B4
:100EE000007000E0000000000000000000000000B2
:100EF00061F86000000000000000000000000041F8
:100F0000F82000000000000000000000000040F099
:100F100020000000000000000000000000406020F1
:100F20000000000000000000000000005801A07F49
:100F300080000000000000000000005C63A0FFC013
:100F4000000000000000000000005EF7A0FFC000ED
:100F50000000000000000000005EF7A0FFC00000DD
:100F600000000000000000005C63A07F8000000023
:100F7000000000000000005801A07F800000000079
:100F8000000000000000406020FFC00000000000E2
:100F9000000000000040F020FFC000000000000042
:100FA0000000000041F820FFC00000000000000029
:100FB00000000061F8603F00000000000000000039
:100FC00000007000E01E00000000000000000000B3
:100FD000007FFFE00C0000000000000000000000A7
:100FE0000000000000000000000000000000007F82
:100FF000FFE00000000000000000000000007000A2
:10100000E0000000000000000000000000630C6031
:10101000000000000000000000000000470E20005B
:1010200000000000000000000000004F0F20000042
:10103000000000000000000000005F0FA0000000A2
:101040000000000000000000005E07A07F8000009C
:101050000000000000000000406020FFC000000011
:101060000000000000000040F020FFC00000000071
:1010700000000000000040F020FFC0000000000061
:1010800000000000004060207F80000000000000A1
:10109000000000005E07A07F80000000000000004C
:1010A0000000005F0FA0FFC0000000000000000073
:1010B00000004F0F20FFC0000000000000000000F3
:1010C00000470E20FFC000000000000000000000EC
:1010D000630C603F00000000000000000000007092
:1010E00000E01E00000000000000000000007FFF84
:1010F000E00C000000000000000000000000000004
:101100005072696E74207061757365640047302099
:1011100046313230302058302059300000473020DE
:101120005A2573004D31303920532569004D313433
:101130003020532569004D3130362053323535008B
:101140004D31303920532569004D31393020532538
:1011500069005072696E742061626F727465640018
:1011600053746F70207072696E7400526573756D80
:1011700065207072696E7400506F7765722D4C6FC8
:101180007373205265636F76657279203F00496EF4
:1011900069742E2054462063617264004D32310020
:1011A0004E6F2054462063617264004368616E672D
:1011B000652054462063617264004D3231005072E4
:1011C000696E742066726F6D2054460053746F70A0
:1011D000207072696E7400526573756D652070724F
:1011E000696E74005061757365207072696E740069
:1011F00041626F7574205072696E74657200537429
:101200006F70207072696E7400526573756D652021
:101210007072696E74005061757365207072696ECA
:101220007400436F6E74726F6C00507265706172FF
:10123000650054756E6500496E666F207363726554
:10124000656E004261627973746570205A004D3694
:101250003030204230004368616E67652066696CFB
:10126000616D656E74004261627973746570205AB5
:1012700000466C6F7700466C6F770046616E207396
:10128000706565640046616E207370656564004E2C
:101290006F7A7A6C65004E6F7A7A6C650053706570
:1012A0006564005370656564004D61696E00473286
:1012B00038004D34323800507265686561742050D2
:1012C0004C4100436F6F6C646F776E004368616ED2
:1012D00067652066696C616D656E74005072656843
:1012E000656174204142530044697361626C6520FA
:1012F0007374657070657273004D38340053657493
:1013000020686F6D65206F66667365747300426553
:1013100064204C6576656C696E67004732380A4711
:101320003239004175746F20686F6D65004D6F76BE
:10133000652061786973004D61696E004D6F766557
:101340002058004D6F76652059004D6F7665205A04
:10135000004578747275646572004D6F7665203053
:101360002E316D6D004D6F766520316D6D004D6FC6
:1013700076652031306D6D004D6F7665206178693E
:1013800073004578747275646572004D6F766520E0
:101390005A004D6F76652059004D6F7665205800D4
:1013A0004578747275646572004D6F7665205A00D9
:1013B0004D6F76652059004D6F766520580050724C
:1013C0006570617265004C6F616420736574746947
:1013D0006E677300496E697469616C697A6520454E
:1013E0004550524F4D0053746F726520736574748D
:1013F000696E67730046696C616D656E74004D6F50
:1014000074696F6E0054656D706572617475726594
:10141000004D61696E0050726568656174204142DB
:101420005320636F6E66005072656865617420506A
:101430004C4120636F6E660046616E207370656577
:10144000640046616E207370656564004E6F7A7A41
:101450006C65004E6F7A7A6C6500436F6E74726FC4
:101460006C0053746F72652073657474696E677372
:10147000004E6F7A7A6C65004E6F7A7A6C65004622
:10148000616E2073706565640046616E20737065DF
:1014900065640054656D706572617475726500569F
:1014A00054726176206D696E005654726176206DBB
:1014B000696E00566D696E00566D696E00566D61FD
:1014C00078204500566D6178204500566D61782082
:1014D0005A00566D6178205A00566D617820590087
:1014E000566D6178205900566D6178205800566D10
:1014F00061782058004D6F74696F6E00416D61789E
:10150000204500416D6178204500416D6178205A89
:1015100000416D6178205A00416D61782059004189
:101520006D6178205900416D6178205800416D61EE
:1015300078205800412D74726176656C00412D74DD
:10154000726176656C00412D72657472616374001E
:10155000412D7265747261637400416363656C0050
:10156000416363656C004D6F74696F6E0056652D45
:101570006A65726B0056652D6A65726B00567A2D2E
:101580006A65726B00567A2D6A65726B0056792D0A
:101590006A65726B0056792D6A65726B0056782DFC
:1015A0006A65726B0056782D6A65726B004D6F74B8
:1015B000696F6E004573746570732F6D6D004573B0
:1015C000746570732F6D6D005A73746570732F6D31
:1015D0006D005A73746570732F6D6D005973746567
:1015E00070732F6D6D005973746570732F6D6D007E
:1015F0005873746570732F6D6D00587374657073D4
:101600002F6D6D004D6F74696F6E0053746570734C
:101610002F6D6D004A65726B00416363656C657286
:101620006174696F6E0056656C6F63697479005AF6
:10163000204F6666736574005A204F666673657442
:1016400000436F6E74726F6C0046696C2E204469A3
:10165000612E0046696C2E204469612E004F66663B
:10166000004F6E20004520696E206D6D3300436F82
:101670006E74726F6C0043616E6E6F7420656E7471
:101680006572207375626469723A2000022E2E0022
:101690000152656672657368004D61696E00426152
:1016A00075643A20313135323030004D656C7A69DD
:1016B0002028437265616C697479290045787472D9
:1016C00075646572733A2031007777772E6372659F
:1016D000616C69747933642E636E003344205072F8
:1016E000696E74657200312E312E362E31004372D0
:1016F00065616C6974792033440041626F757420B0
:101700005072696E7465720020204E6F7A7A6C6533
:101710003A200020004261636B004D696E696D756F
:101720006D2054656D70206973203137302E00486C
:10173000656174696E67206661696C6564004578EF
:101740007472756465206D6F726500526573756D96
:1017500065207072696E7400524553554D45204F97
:101760005054494F4E533A0020204E6F7A7A6C65A0
:101770003A20006368616E6765006F662074686573
:101780002066696C616D656E7400576169742066CE
:101790006F72207374617274005052494E5420501D
:1017A00041555345440020204E6F7A7A6C653A20AB
:1017B00000200066696C616D656E7420756E6C6FDB
:1017C0006164005761697420666F72005052494E1F
:1017D00054205041555345440020204E6F7A7A6C76
:1017E000653A20002000506C65617365207761695F
:1017F000742E2E2E0048656174696E67206E6F7AB4
:101800007A6C65005052494E54205041555345441E
:101810000020204E6F7A7A6C653A200020006865BF
:101820006174206E6F7A7A6C652E005072657373E6
:1018300020627574746F6E20746F005052494E545C
:10184000205041555345440020204E6F7A7A6C65F4
:101850003A2000746F20636F6E74696E75652E2E6A
:101860002E00616E642070726573732062757474EB
:101870006F6E00496E736572742066696C616D6588
:101880006E74005052494E54205041555345440007
:1018900020204E6F7A7A6C653A2000200066696CD1
:1018A000616D656E74206C6F6164005761697420AE
:1018B000666F72005052494E542050415553454472
:1018C00000434F4D4D554E49434154494F4E0044FE
:1018D000525952554E004552524F525300494E46AE
:1018E0004F004543484F004B494C4C45442E200087
:1018F00053544F505045442E20005072696E746509
:10190000722073746F707065642064756520746FE5
:10191000206572726F72732E204669782074686534
:10192000206572726F7220616E6420757365204D40
:1019300039393920746F20726573746172742E2086
:101940002854656D706572617475726520697320C5
:1019500072657365742E2053657420697420616606
:101960007465722072657374617274696E67290A96
:10197000004E6F204C696E65204E756D6265722059
:101980007769746820636865636B73756D2C204C90
:10199000617374204C696E653A20004E6F20436875
:1019A00065636B73756D2077697468206C696E650B
:1019B000206E756D6265722C204C617374204C69C9
:1019C0006E653A2000636865636B73756D206D69A1
:1019D000736D617463682C204C617374204C696E64
:1019E000653A20004C696E65204E756D6265722007
:1019F0006973206E6F74204C617374204C696E653E
:101A0000204E756D6265722B312C204C61737420F1
:101A10004C696E653A20004D313130004D33310054
:101A20004D383420582059205A2045005446207201
:101A3000656164206572726F720A00446F6E652082
:101A40007072696E74696E672066696C650A002041
:101A5000496E76616C69642065787472756465722C
:101A60002000000000000000000000000000000056
:101A7000D0420000344300000343334420507269D5
:101A80006E7465722072656164792E00526573759B
:101A90006D696E67207072696E7400436C69636B68
:101AA00020746F20726573756D652E2E2E0044654F
:101AB0006C6574696F6E206661696C65642C204684
:101AC000696C653A200046696C652064656C6574D4
:101AD00065643A006F70656E206661696C65642CA0
:101AE0002046696C653A2000202F0020403A0048CB
:101AF000656174696E6720646F6E652E0020573AC9
:101B00000045787472756465722025730033442033
:101B10005072696E7465722072656164792E00205E
:101B20005A3A0020593A0020436F756E7420583A93
:101B30000020453A00205A3A0020593A00583A000D
:101B40004361703A454D455247454E43595F5041B8
:101B5000525345523A300A004361703A434153456B
:101B60005F4C494748545F4252494748544E455399
:101B7000533A300A004361703A544F47474C455F2F
:101B80004C49474854533A300A004361703A534F26
:101B90004654574152455F504F5745523A300A001C
:101BA0004361703A4C4556454C494E475F44415459
:101BB000413A310A004361703A5A5F50524F4245F0
:101BC0003A310A004361703A4155544F4C455645ED
:101BD0004C3A310A004361703A5052494E545F4AC0
:101BE0004F423A310A004361703A50524F475245D2
:101BF00053533A300A004361703A4155544F5245AD
:101C0000504F52545F54454D503A310A0043617071
:101C10003A454550524F4D3A310A004649524D57C8
:101C20004152455F4E414D453A4D61726C696E209F
:101C3000437265616C69747920334420534F555267
:101C400043455F434F44455F55524C3A6874747046
:101C5000733A2F2F6769746875622E636F6D2F4D0D
:101C600061726C696E4669726D776172652F4D6144
:101C7000726C696E2050524F544F434F4C5F564523
:101C80005253494F4E3A312E30204D414348494E30
:101C9000455F545950453A3344205072696E74651B
:101CA000722045585452554445525F434F554E5447
:101CB0003A3120555549443A63656465326132666C
:101CC0002D343161322D343734382D396231322D93
:101CD0006335356336326633363766660A00205A16
:101CE00000205900580020204D61783A2000205AE9
:101CF00000205900580020204D696E3A20004F6E98
:101D000020004F666600536F667420656E647374BE
:101D10006F70733A200020643A0020693A00207006
:101D20003A0023646566696E652020444546415546
:101D30004C545F4B64200023646566696E65202007
:101D400044454641554C545F4B6920002364656609
:101D5000696E65202044454641554C545F4B7020C8
:101D600000504944204175746F74756E6520666932
:101D70006E697368656421205075742074686520ED
:101D80006C617374204B702C204B6920616E642051
:101D90004B6420636F6E7374616E74732066726F30
:101DA0006D2062656C6F7720696E746F20436F6E73
:101DB00066696775726174696F6E2E680A005049B2
:101DC00044204175746F74756E65206661696C6539
:101DD00064212074696D656F75740A005049442050
:101DE0004175746F74756E65206661696C656421F8
:101DF0002054656D706572617475726520746F6FC3
:101E000020686967680A00204B643A2000204B690B
:101E10003A2000204B703A20000A20436C61737313
:101E2000696320504944200A002054753A2000205C
:101E30004B753A2000206D61783A2000206D696E64
:101E40003A200020643A200020626961733A200041
:101E50004572723A20546F6F206661722100546F90
:101E60006F206661722066726F6D207265666572A2
:101E7000656E636520706F696E740A004F666673E5
:101E8000657473206170706C696564004D36303024
:101E900020486F74656E6420746F6F20636F6C648C
:101EA00020746F206368616E67652066696C616D80
:101EB000656E740A0047322F4733206261642070D8
:101EC0006172616D65746572730A00536C6565704B
:101ED0002E2E2E00486F6D652025732573257320E7
:101EE0006669727374002066697273740A005A001E
:101EF00059005800486F6D6520000A0A4265642049
:101F00004C6576656C20436F7272656374696F6EA1
:101F1000204D61747269783A0052756E6E696E6711
:101F200020696E204452592D52554E206D6F6465C4
:101F30000A00473239204175746F20426564204C95
:101F40006576656C696E670A003F2856296572627E
:101F50006F7365206C6576656C20697320696D70A0
:101F60006C61757369626C652028302D34292E0AE6
:101F700000205A3A200020593A2000426564205837
:101F80003A20004E6F206D6F76652E00456E6420FE
:101F900066696C65206C6973740A00426567696ED6
:101FA0002066696C65206C6973740A005446207061
:101FB00072696E74696E67206279746520004E6F75
:101FC00074205446207072696E74696E670A002529
:101FD00069730025696D20256973002569682025CE
:101FE000696D2025697300256964202569682025AD
:101FF000696D20256973002569792025696420258C
:1020000069682025696D20256973005072696E74B6
:102010002074696D653A200050726F746563746551
:10202000642050696E0A0045787472756465722088
:102030002573003344205072696E74657220726596
:102040006164792E006F666600E218DD18D618CF3D
:1020500018C11844454255473A004B494C4C454439
:102060002E20004D3131332053006F6B003344205C
:102070005072696E746572204F66662E002F2F2095
:10208000007A5F6D696E3A2000795F6D61783A2061
:1020900000785F6D696E3A20005265706F727469E6
:1020A0006E6720656E6473746F70207374617475ED
:1020B000730A004D31343520533C696E6465783EB7
:1020C000206F7574206F662072616E6765202830FE
:1020D0002D31290A0053657474696E67205472614A
:1020E00076656C20416363656C65726174696F6EBF
:1020F0003A200053657474696E672052657472618A
:10210000637420416363656C65726174696F6E3AD4
:10211000200053657474696E67205072696E742074
:10212000416363656C65726174696F6E3A20005338
:10213000657474696E67205072696E7420616E6494
:102140002054726176656C20416363656C657261D1
:1021500074696F6E3A200000010F150E12FF1617FA
:102160000EFF1303021A14FFFFFF0C04FFFFFF0111
:10217000000EFFFF0C190DFF18FFFFFFFFFFFF43CD
:10218000290A0061626C656420286D696E2074659F
:102190006D702000436F6C6420657874727564659F
:1021A00073206172652000426564204C6576656C21
:1021B000696E6720004661696C656420746F2065F4
:1021C0006E61626C6520426564204C6576656C6961
:1021D0006E670A00426564204C6576656C20436F2B
:1021E0007272656374696F6E204D61747269783ABA
:1021F000003A20007A5F6D696E3A20202D35207AF2
:102200005F6D61783A20203230005A204F66667345
:10221000657420004E6F2063617365206C69676888
:10222000740A004163746976652045787472756438
:1022300065723A2000556E6B6E6F776E20636F6D1E
:102240006D616E643A202200526573656E643A20B7
:10225000006F6B0020746F6F206C6F6E6720657865
:1022600074727573696F6E2070726576656E7465D1
:10227000640A0020636F6C642065787472757369FA
:102280006F6E2070726576656E7465640A006275A3
:1022900073793A2070617573656420666F72206986
:1022A0006E7075740A00627573793A207061757387
:1022B000656420666F7220757365720A00627573BB
:1022C000793A2070726F63657373696E670A004BA9
:1022D000494C4C45442E20004B494C4C20636175C1
:1022E00073656420627920746F6F206D7563682058
:1022F000696E6163746976652074696D65202D204F
:1023000063757272656E7420636F6D6D616E643A91
:102310002000506C656173652072657365740050B0
:1023200052494E5445522048414C54454400507245
:10233000696E7465722068616C7465642E206B69C7
:102340006C6C28292063616C6C6564210A006269E9
:102350006E004D31313720494E56414C494420449E
:102360004154412E004D313137205072696E7469ED
:102370006E672E2E2E004730205A257300473238C4
:10238000205830205930004730205A2573004739F3
:1023900032205A2573204525730062696E000000C3
:1023A000000000003443000000000000484200002C
:1023B000484200008040000000005761726E696E64
:1023C000673A20486F6D696E672042756D702044D2
:1023D000697669736F72203C20310A0002020400A2
:1023E00000404000004040000000400000D042009B
:1023F00000344300000343FF01FF7C3C3E5E2B3D65
:102400003F2F5B5D3B2C2A225C004572726F72206D
:1024100077726974696E6720746F20454550524F1A
:102420004D210A0020204E6F7A7A6C653A200020F8
:102430000066696C616D656E742065787472756490
:1024400065005761697420666F72005052494E549E
:102450002050415553454400746F20726573756D6B
:1024600065005761697420666F72207072696E74BE
:10247000005052494E5420504155534544000000ED
:102480002100240027002A00000022002500280047
:102490002B00000020002300260029000202020277
:1024A00002020202040404040404040403030303F8
:1024B00003030303010101010101010101020408F9
:1024C000102040800102040810204080010204080E
:1024D000102040808040201008040201000000010C
:1024E0000200090A000000000403080700000000C1
:1024F0000000000000000000000000002020506CE0
:10250000616E6E6572427566666572427974657356
:102510003A20002046726565204D656D6F72793AEC
:102520002000312E312E362E310A004D61726C6939
:102530006E0020536F667477617265205265736513
:10254000740A00205761746368646F672052657372
:1025500065740A002042726F776E206F7574205286
:10256000657365740A002045787465726E616C202D
:1025700052657365740A00506F77657255700A0072
:1025800073746172740A006572726F722077726977
:1025900074696E6720746F2066696C650A00456E09
:1025A0006473746F70732025632025632025632076
:1025B000256300205A3A0020593A0020583A006515
:1025C0006E6473746F7073206869743A2000446F8E
:1025D0006E6520736176696E672066696C652E0A88
:1025E000004D32390050726F62696E672066616912
:1025F0006C65640A0050726F62696E67206661697B
:102600006C656400205A3A200020593A2000426547
:102610006420583A20002E0A0044656C6574696F86
:102620006E2862696E29206661696C65640046697E
:102630006C652862696E292064656C657465640048
:1026400057726974696E6720746F2066696C653AA9
:1026500020006F70656E206661696C65642C204691
:10266000696C653A20006F70656E206661696C6503
:10267000642C2046696C653A200046696C652073BD
:10268000656C65637465640A002053697A653A2055
:102690000046696C65206F70656E65643A20006F56
:1026A00070656E206661696C65642C2046696C6596
:1026B0003A20002066696C653A20004E6F77200052
:1026C0002220706F73002220706172656E743A224E
:1026D00000535542524F5554494E452043414C4CAE
:1026E000207461726765743A22004B494C4C454432
:1026F0002E2000747279696E6720746F2063616C9C
:102700006C207375622D67636F64652066696C6504
:1027100073207769746820746F6F206D616E792003
:102720006C6576656C732E204D4158206C6576651E
:102730006C2069733A0043616E6E6F74206F706530
:102740006E20737562646972200054462063617262
:1027500064206F6B0A006F70656E526F6F74206635
:1027600061696C65640A00766F6C756D652E696EC3
:102770006974206661696C65640A004572726F72E3
:102780003A00544620696E6974206661696C0A00DB
:102790006175746F25692E67004D3234004D3233F8
:1027A00020257300656E7175657565696E672022F9
:1027B000006563686F3A002E0A006F70656E2066D0
:1027C00061696C65642C2046696C653A200057721B
:1027D0006974696E6720746F2066696C653A2000C1
:1027E00000060900FE070192032120FFFF08FF07F2
:1027F000FF0000000600000107070602008080803D
:1028000080800080030202060105A0A005070706DC
:1028100000005050F850F8505005070706000020FF
:1028200078A07028F020050707060000C0C8102017
:102830004098180507070600006090A040A890681F
:10284000020303060104C0408003070706010020BD
:102850004080808040200307070601008040202040
:1028600020408005050506000120A870A820050568
:10287000050600012020F820200203030602FFC005
:102880004080050101060003F8020202060200C0B2
:10289000C005050506000108102040800507070651
:1028A0000000708888888888700307070601004048
:1028B000C040404040E005070706000070880870EF
:1028C0008080F8050707060000F81020100808F0BF
:1028D00005070706000010305090F8101005070794
:1028E000060000F880F00808887005070706000059
:1028F000708080F0888870050707060000F80810CF
:10290000202020200507070600007088887088882E
:1029100070050707060000708888780808700205AF
:1029200005060200C0C000C0C00206060602FFC0C5
:10293000C000C0408004070706000010204080400F
:102940002010050303060002F800F804070706013B
:102950000080402010204080050707060000708896
:10296000081020002005070706000070880868A8E6
:10297000A870050707060000708888F88888880511
:102980000707060000F08888F08888F0050707062A
:10299000000070888080808870050707060000F0BE
:1029A0008888888888F0050707060000F88080F08E
:1029B0008080F8050707060000F88080F08080809E
:1029C000050707060000708880B88888700507072B
:1029D000060000888888F8888888010707060200B2
:1029E00080808080808080050707060000381010F6
:1029F000101090600507070600008890A0C0A09006
:102A000088050707060000808080808080F8050721
:102A10000706000088D8A888888888050707060068
:102A2000008888C8A898888805070706000070886D
:102A30008888888870050707060000F08888F0807D
:102A4000808005070706000070888888A8906805C0
:102A50000707060000F08888F0A0908805070706A1
:102A60000000788080700808F0050707060000F86D
:102A7000202020202020050707060000888888885D
:102A80008888700507070600008888888888502095
:102A90000507070600008888888888A8500507076A
:102AA0000600008888502050888805070706000027
:102AB00088888850202020050707060000F80810A5
:102AC000204080F8030707060100E08080808080B6
:102AD000E0050505060001804020100803070706F1
:102AE0000100E02020202020E00503030600042050
:102AF0005088050101060000F80202020602058066
:102B00004005050506000070087888780507070667
:102B100000008080B0C88888F005050506000070B8
:102B20008080887005070706000008086898888874
:102B3000780505050600007088F88070050707060F
:102B400000003048E0404040400506060600FF70A7
:102B500088887808700507070600008080B0C8885C
:102B6000888801070706020080008080808080033B
:102B700008080601FF200020202020A040040707AD
:102B8000060000808090A0C0A09003070706010007
:102B9000C04040404040E0050505060000D0A8A820
:102BA000A8A8050505060000B0C8888888050505A1
:102BB00006000070888888700506060600FFF08809
:102BC00088F080800506060600FF78888878080867
:102BD000050505060000B0C88080800505050600D3
:102BE0000070807008F00407070600004040E040D5
:102BF000404030050505060000888888986805056E
:102C00000506000088888850200505050600008814
:102C100088A8A850050505060000885020508805A2
:102C200006060600FF8888887808700505050600F6
:102C300000F8102040F803070706010020404080FC
:102C4000404020010707060200808080808080804D
:102C50000307070601008040402040408005020233
:102C60000600026890000000060000000000060058
:102C70000000000006000000000006000000000048
:102C80000600000000000600000000000600000032
:102C90000000060000000000060000000000060022
:102CA0000000000006000000000006000000000018
:102CB0000600000000000600000000000600000002
:102CC00000000600000000000600000000000600F2
:102CD00000000000060000000000060000000000E8
:102CE00006000000000006000000000006000000D2
:102CF00000000600000000000600000000000600C2
:102D000000000000060000000000060000000000B7
:102D100006000000000006000000000006000000A1
:102D20000000060000000000060000000000060091
:102D30000001070706020080008080808080050770
:102D4000070600002070A8A0A8702005070706004D
:102D500000304040E04050A805050506000088709E
:102D6000507088050707060000885020F820F820DA
:102D70000107070602008080800080808005080827
:102D800006000030482050502090600301010601E9
:102D900007A0050707060000F888B8B8B888F80546
:102DA0000707060001700878887800F80505050611
:102DB00000012850A05028050303060001F8080868
:102DC0000202020602064080050707060000F88896
:102DD000A88898A8F8050101060006F8040404066E
:102DE0000003609090600507070600002020F8208F
:102DF0002000F804050506000360902040F003055C
:102E000005060003E020E020E00202020602064080
:102E1000800508080600FF8888888898E880800573
:102E2000070706000078989878181818020202061A
:102E30000202C0C00202020602FF4080030505062E
:102E4000000340C04040E005070706000170888885
:102E5000887000F8050505060001A0502850A0055F
:102E600007070600008890A858B808080507070655
:102E700000008890B848982038050808060000C06F
:102E800040C048D838080805070706000020002081
:102E9000408088700508080600004020007088F80F
:102EA00088880508080600001020007088F88888C7
:102EB0000508080600002050007088F8888805087A
:102EC000080600006890007088F8888805080806E1
:102ED00000005000708888F88888050808060000FF
:102EE0002050207088F888880507070600003860A1
:102EF000A0B8E0A0B80508080600FF7088808088A8
:102F0000702060050808060000402000F880F0806E
:102F1000F8050808060000081000F880F080F805A1
:102F20000808060000205000F880F080F805070728
:102F30000600005000F880F080F803080806010041
:102F4000804000E0404040E00308080601002040C7
:102F500000E0404040E003080806010040A000E017
:102F6000404040E0030707060100A000E040404069
:102F7000E0050707060000704848E8484870050863
:102F80000806000068900088C8A898880508080608
:102F900000004020708888888870050808060000B6
:102FA0001020708888888870050808060000205066
:102FB0000070888888700508080600006890007016
:102FC0008888887005080806000050007088888886
:102FD00088700505050600018850205088050808FE
:102FE0000600FF1070A8A8A8A870400508080600F1
:102FF000004020888888888870050808060000102E
:1030000020888888888870050808060000205000FD
:10301000888888887005080806000050008888881D
:10302000888870050808060000102088502020209D
:10303000200509090600FFC040704848704040E084
:103040000408080601FF609090A09090E0800508B9
:1030500008060000402000700878887805080806F7
:103060000000102000700878887805080806000025
:1030700020500070087888780508080600006890DD
:10308000007008788878050707060000500070086F
:103090007888780508080600002050207008788895
:1030A00078050606060000D02878A0A85005060678
:1030B0000600FF7080887020600508080600004048
:1030C00020007088F88070050808060000102000B5
:1030D0007088F8807005080806000020500070888D
:1030E000F8807005070706000050007088F88070AF
:1030F00003080806010080400040C04040E003088B
:103100000806010020400040C04040E003080806D7
:10311000010040A00040C04040E003070706010056
:10312000A00040C04040E0050707060000A040A006
:1031300010788870050808060000689000B0C888FC
:10314000888805080806000040200070888888707C
:10315000050808060000102000708888887005089F
:10316000080600002050007088888870050808064E
:1031700000006890007088888870050707060000C6
:10318000500070888888700505050600012000F849
:1031900000200507070600FF1070A8A8A8704005CA
:1031A00008080600004020008888889868050808FC
:1031B0000600001020008888889868050808060026
:1031C000002050008888889868050707060000508E
:1031D0000088888898680509090600FF1020008883
:1031E0008888F808700407070601FFC04060506037
:1031F00040E00508080600FF5000888888780870BD
:1032000000060900FE000000000001090008FE00A1
:103210000005080806000040F0C888889878100566
:103220000808060000C0F88888888888F805050521
:103230000600012030F83020050808060000207044
:10324000F820202020E00509090600FF2070A8A82A
:10325000B8888870200509090600FFE080C0B0A882
:10326000283028280509090600FFF8A888888888DA
:1032700088A8F8050A0A0600FE205050505088A879
:10328000A8887003030306000340A040B4E592E55C
:1032900011241FBECFEFD0E4DEBFCDBF13E0A0E00E
:1032A000B1E0E6E1F9EF01E00BBF02C007900D923B
:1032B000A638B107D9F729E1A6E8B3E001C01D920D
:1032C000A53CB207E1F719E1C7E4D9E104C02197B1
:1032D000FE010E94FAFBC634D107C9F70E941BE722
:1032E0000C947EFC0C9400000895119800000000DE
:1032F00087FD52C0419800000000119A00000000B4
:1033000011980000000086FD53C0419800000000A5
:10331000119A0000000011980000000085FD46C0D1
:10332000419800000000119A000000001198000070
:10333000000084FD39C0419800000000119A00008F
:10334000000011980000000083FD2CC0419800008F
:103350000000119A0000000011980000000082FD9A
:103360001FC0419800000000119A00000000119851
:103370000000000081FD12C0419800000000119A79
:1033800000000000119800000000419800000000BB
:10339000119A000000000895419AADCF419AEDCFF7
:1033A000419AE0CF419AD3CF419AC6CF419AB9CF43
:1033B000419AACCF880F991F880F991FFC01EA59D9
:1033C000FE4E40815181628173818E51914FFC018B
:1033D0004083518362837383E0917308F091740892
:1033E00082899389A489B5898093260990932709B6
:1033F000A0932809B09329090895EF92FF920F93A3
:103400001F93CF93DF93E0907308F0907408F70157
:1034100082819381A481B581181619061A061B06AC
:10342000E4F48091210980FF18C08091F90896B1D9
:1034300092FB992790F98E7F89278093F9089091C4
:10344000F8089170892349F08091EE0E8160809395
:10345000EE0E90E080E00E94DA19F70186819781F4
:10346000A085B185181619061A061B0614F5809159
:10347000210981FD1EC08091F90896B193FB0027B8
:1034800000F910E011950195110908270072112724
:1034900080278093F9080091F8080072082349F00A
:1034A0008091EE0E80628093EE0E81E090E00E94AB
:1034B000DA19F70182859385A485B5851816190652
:1034C0001A061B0654F58091210982FF26C08091BF
:1034D000BB0E882311F18091F90896B192959F70E7
:1034E00021E092279170C92FF0E0DF2FD195C1958F
:1034F000D109C827C470DD278C278093F908C091B3
:10350000F808C470C82349F08091EE0E846080935F
:10351000EE0E82E090E00E94DA198091F908809323
:10352000F808DF91CF911F910F91FF90EF900895D0
:10353000AF92BF92CF92DF92EF92FF920F931F93C1
:10354000CF93DF931092A90E8091F30E9091F40E19
:10355000A091F50EB091F60E81309048A105B1050D
:1035600040F01092F30E1092F40E1092F50E10929D
:10357000F60EC091F30E8091BE091816DCF4282FC8
:10358000082E000C330B215031094C2F0C2E000C4F
:10359000550B4217530774F0CFEFC80F8C2F90E0F4
:1035A000B0E0A0E08093F30E9093F40EA093F50E9C
:1035B000B093F60E1092BD0980919B0EC81714F4BB
:1035C000C0939B0E80919B0E082E000C990B0496C5
:1035D0002C2F0C2E000C330B8217930724F48CEF46
:1035E0008C0F80939B0ED0919B0E05E00D0F81E018
:1035F000EE24E394F12C12E01D1B22E0C22ED12C0C
:10360000B82EBD1AAD2EA194D1112BC08823B1F0D4
:103610001C16A4F08091F30E9091F40EA091F50E7B
:10362000B091F60E0196A11DB11D8093F30E9093FB
:10363000F40EA093F50EB093F60ECF5F8091490182
:10364000882339F020E041E068E577E18A2D0E9487
:10365000D4C780E0DF5FD013D7CF83E08093BE096B
:103660001FC0D13041F58091AB0E81110FC0809108
:103670004901882371F381E0C13009F080E020E244
:103680004BE457E16B2D0E9496DAE3CFC13079F716
:10369000D092F308C092F2088091BD09882339F3D3
:1036A000DF91CF911F910F91FF90EF90DF90CF901E
:1036B000BF90AF900895D23061F68091AB0E81112A
:1036C0000DC080914901882321F281E0C23009F0C8
:1036D00080E020E24EE357E1612FD5CFC23089F779
:1036E000F092F308E092F2088091BD09882349F333
:1036F000D7CF0C946ECBCF92DF92EF92FF92CF9305
:10370000C82F0E9462CB6B017C0124EA30E74DE7B1
:103710005FE36091A9097091AA098091AB0990912A
:10372000AC090E9414F287FD18C08AEF90E0A0E077
:10373000B0E08C0D9D1DAE1DBF1D80939C0E90931F
:103740009D0EA0939E0EB0939F0EC0933401CF9117
:10375000FF90EF90DF90CF90089580E090E0DC0143
:10376000E8CFEF92FF920F931F93CF93DF93CDB7E4
:10377000DEB7AE970FB6F894DEBF0FBECDBF7E01A9
:103780008FE1E80EF11C80E1F70111928A95E9F7CB
:1037900060919709709198098091990990919A097F
:1037A000870122E043E00E9410EDF80181918F0132
:1037B000882319F00E94B28AF8CF8AE00E94B28A68
:1037C00003E012E0F80181918F01882319F00E9433
:1037D000B28AF8CF8AE00E94B28A8091AD0E9091B1
:1037E000AE0E8E010F5F1F4F181619060CF050C059
:1037F0008091390F8F938091380F8F9389E491E1F5
:103800009F938F931F930F930E94ABF1C8010E9467
:1038100008C38091370F8F938091360F8F9380E488
:1038200091E19F938F931F930F930E94ABF1C80177
:103830000E9408C386E391E19093A3138093A2139F
:103840000E94D18781E090E09093B00E8093AF0EFC
:103850000FB6F894DEBF0FBECDBF8091EB15882365
:1038600019F081E08093EA150E945FCD6FEF8CE143
:1038700091E10E9461DBAE960FB6F894DEBF0FBEF9
:10388000CDBFDF91CF911F910F91FF90EF900895E1
:10389000809196098F93809195098F938DE291E1A4
:1038A0009F938F931F930F930E94ABF1C8010E94C7
:1038B00008C3809194098F93809193098F9384E238
:1038C00091E19F938F931F930F930E94ABF1C801D7
:1038D0000E9408C3FF92EF928DE191E19F938F9335
:1038E0001F930F930E94ABF1C8010E9408C3B0CF91
:1038F000CF93DF9300D000D0CDB7DEB7882349F057
:103900000E9466DA0F900F900F900F90DF91CF9189
:10391000089588EB91E09C838B8384E190E09A8307
:103920008983BE016D5F7F4FCE0101960E945EC408
:10393000E9CF9F92AF92BF92CF92DF92EF92FF9228
:103940000F931F93CF93DF935B01E9014A3009F492
:10395000B0C0453109F063C0DB011296ED91FC91D6
:10396000F280C681D781139A88E290E00197F1F73F
:10397000EF2CE29420EFE22230E1932E9F0C48E2FC
:10398000C42ED12C0E9407C6C6010197F1F7BFE1F2
:10399000BF1508F47BC08F2D807780680E94751951
:1039A0008E2D0E947519C6010197F1F70E9475C509
:1039B0000E94BEC5C6010197F1F70E942CC5C60141
:1039C0000197F1F78E01005F1F4F8881807F0E9471
:1039D000751989918295807F0E947519C017D1074A
:1039E000A1F7C6010197F1F7F394E0E1EE0EF910AB
:1039F000C9CF1398D5011296CD91DC91CE010E94CA
:103A000019CE81113CC1DF91CF911F910F91FF9091
:103A1000EF90DF90CF90BF90AF909F900895FB0103
:103A200002811381423309F4E5C008F4E9C0463449
:103A300009F4D6C0473409F4D9C04B3329F589813C
:103A40002B81D80112967C91129713963C912130CC
:103A500009F42CC1233009F0F6C048EF480F582F65
:103A600091E0341708F490E031E0541708F030E0AA
:103A7000492F432B61E0571708F460E0462309F013
:103A80000AC1932309F007C181E0BDCF80EE8F0DFD
:103A90008068807F0E9475198F2D8295807F0E949B
:103AA0007519C6010197F1F70E9475C50E9475C589
:103AB00081CF0B9A1398399A4198099A119A139ABF
:103AC00088E290E00197F1F788E790E0CEE9DFE047
:103AD000FE013197F1F70197D9F70E9407C608E276
:103AE00010E0C8010197F1F70E94BEC50E9475C59C
:103AF000C8010197F1F70E94BEC580E10E947519C7
:103B0000C8010197F1F7CE010197F1F7CE010197B6
:103B1000F1F7CE010197F1F7CE010197F1F7CE0150
:103B20000197F1F7CE010197F1F7CE010197F1F777
:103B3000CE010197F1F7CE010197F1F7CE01019780
:103B4000F1F7CE010197F1F7CE010197F1F7CE0120
:103B50000197F1F7CE010197F1F72197F1F780E393
:103B60000E94751980EE0E947519C8010197F1F73E
:103B7000F12CD0E08D2F807780680E9475198F2DF1
:103B80000E947519C8010197F1F70E9475C50E943E
:103B9000BEC5C8010197F1F70E942CC5C801019765
:103BA000F1F7C0E20E94BEC50E94BEC5C8010197E0
:103BB000F1F7C150B9F70E9407C6C8010197F1F7A4
:103BC000DF5F80E1F80ED032A9F60E94BEC580EC1E
:103BD0000E947519C8010197F1F7139881E013CF7E
:103BE000D80115968C91888381E00DCFF8018181F1
:103BF0008883FACFB901C8010E9403CE81E003CFC8
:103C0000443171F0473109F03FCF1882F8018281C9
:103C10008983858181508A8383818B8381E0F3CE80
:103C2000D80115964C91159750E0440F551F70E040
:103C300060E016968D919C910E9421FCC8010E9423
:103C40002FCE81E0E0CE381708F41ECF871708F496
:103C50001BCFFA80E12CD12C243070F41DC0BE01A2
:103C6000C8010E9403CE898198819D0D98838E0D95
:103C70008983FF0C09F408CFF7FEF6CFF0CF4D8112
:103C800050E0440F551F70E060E08E819F810E94DC
:103C900021FC81E0B8CEFA8030E0F901E753FE4F15
:103CA000D0802B533E4FF901E080E6CF58E0580F0B
:103CB000482FD6CE3F924F925F926F927F928F9213
:103CC0009F92AF92BF92CF92DF92EF92FF920F93AB
:103CD0001F93CF93DF93EC01162FDCAC5BAC5C0140
:103CE00024E0A20EB11CE98DFA8DC5010995982E2C
:103CF000E884F984C7010E94E7CF082F8885998559
:103D00000E94EACF782E88248A94013011F48FE043
:103D1000882E888599850E94DDCF082F8885998512
:103D20000E94D9CFC82E888599850E94E1CF11368F
:103D300070F0009761F0E80EF91E01E6C116B8F4C4
:103D40001C8A1F8A188E1D8A1E8A80E05BC08885A7
:103D500099850E94E4CF113430F0009721F0E80EED
:103D6000F91E01E4EBCF81E1E80EF11CE7CFC016AC
:103D700038F3872D90E0F70124912F3F39F4FFEFBE
:103D8000EF1AFF0AC016E1F20F5FF5CF101368C0FB
:103D9000888599850E94E7CF97012F5F3F4FF701F4
:103DA000882319F0823009F044C084918F8BF90187
:103DB0002491288FF7013396E491EC8BF701349628
:103DC000E491ED8BF7013596E491EE8BE114F1046B
:103DD00009F4BBCF888599850E94EACF782ECF88D9
:103DE000388C8D89580E1D2D13198E89181B190DAD
:103DF000032D2C2D412F652DC5010E94F4CF81117B
:103E000038C08C899BAD890F8BAF81E090E0DF914A
:103E1000CF911F910F91FF90EF90DF90CF90BF90C7
:103E2000AF909F908F907F906F905F904F903F905A
:103E300008958491982F9F7092509E8B82958F70D9
:103E40008D8BF9012491822F8F70888F22952F708E
:103E50002F8BF7013296E491E295EF70EC8BB6CFA1
:103E60003296E491E821E80FF92FF11DEE0EFF1EC6
:103E700089CFE70CF11C07E00C0D06950695069519
:103E8000310E4E01F0E28F0E911C602E712C131535
:103E900009F4B7CF452C670112C0F60184916E81F9
:103EA0007F8148A219A31BA28AA394014BE3C501F9
:103EB0000E9436CEFFEFCF1ADF0A28E0420E8C2D8B
:103EC0008E19801750F3E60CF71C1F5FE0CF4F925E
:103ED0005F926F927F92AF92BF92CF92DF92EF92FA
:103EE000FF920F931F93CF93DF938C01EB01FC01A3
:103EF00047A050A461A472A4AFA0B8A4C9A4DAA436
:103F00009501A601C301B2010E9414F287FF3EC0D1
:103F1000A3019201C301B2010E947AF22B013C017C
:103F2000F80163A974A985A996A990589B01AC01D1
:103F30000E94C0F8F80127A530A941A952A90E9402
:103F40007AF29B01AC01C301B2010E94BFF80E944A
:103F50006EFB7B018C019B01AC01B501C6010E9487
:103F600014F287FF02C0750186019701A801B5010F
:103F7000C6010E9414F2882349F0C701D8018FA31B
:103F800098A7A9A7BAA7888181608883DF91CF917C
:103F90001F910F91FF90EF90DF90CF90BF90AF9067
:103FA0007F906F905F904F9008954F925F926F92C5
:103FB0007F928F929F92AF92BF92CF92DF92EF92B9
:103FC000FF92CF93DF93CDB7DEB76A970FB6F89421
:103FD000DEBF0FBECDBF9A8F898F5B014A01DC0126
:103FE000D7966D917D918D919C91DA970E9419F2EF
:103FF0006B017C01F50120813181428153810E9456
:104000007AF20E949EF90E9433FA3B015C01D401CE
:104010002D913D914D915C91C701B6010E947AF2BC
:104020000E949EF90E9433FA6D827E82AF82B8862A
:104030002D813E814F815885283731054105510535
:1040400040F428E730E040E050E02D833E834F838A
:10405000588769837A838B839C8389819A81AB811A
:10406000BC8188379105A105B10540F428E730E00F
:1040700040E050E029833A834B835C83E98DFA8DDD
:10408000ED5BFF4F80819181A281B3818D879E87F7
:10409000AF87B88BBC01CD010E941BF269877A877C
:1040A0008B879C876D817E818F8198850E9419F214
:1040B000698B7A8B8B8B9C8B20E030E0A901698522
:1040C0007A858B859C850E9414F2882309F432C17D
:1040D000A7019601C701B6010E947AF24B015C016B
:1040E00029893A894B895C89CA01B9010E947AF20F
:1040F0009B01AC01C501B4010E94BFF84B015C01FA
:1041000029853A854B855C85CA01B9010E94C0F8B2
:104110009B01AC01C501B4010E94BAF90E949EF94D
:104120000E942CFA2B013C016D857E858F85988934
:1041300090958095709561957F4F8F4F9F4F0E940E
:104140001BF24B015C0169817A818B819C810E9409
:1041500019F26D877E878F87988B20E030E0A90168
:10416000C501B4010E9414F2882309F4E7C02D852B
:104170003E854F855889CA01B9010E947AF26D8B3C
:104180007E8B8F8B988FA7019601C701B6010E9485
:104190007AF29B01AC016D897E898F89988D0E948E
:1041A000BFF86B017C01A5019401C501B4010E9417
:1041B000C0F89B01AC01C701B6010E94BAF90E9488
:1041C00062FAA98DBA8D52968D909D90AD90BC905B
:1041D000559775016401C418D508E608F7080E94D0
:1041E0002CFAC61AD70AE80AF90AF7FE67C020E0D7
:1041F00030E0A90169857A858B859C850E9414F23F
:10420000882309F49FC0C501B4010E9419F26B0113
:104210007C0129853A854B855C85CA01B9010E94DC
:10422000C0F89B01AC01C701B6010E947AF26B0194
:104230007C0129893A894B895C89CA01B9010E94AC
:104240007AF29B01AC01C701B6010E94BFF86B0175
:104250007C012D853E854F855889CA01B9010E9490
:104260007AF29B01AC01C701B6010E94C0F86B0154
:104270007C0120E030E040E850E469857A858B8558
:104280009C850E947AF29B01AC01C701B6010E9495
:10429000BAF90E949EF90E942CFA2B013C0177FE8C
:1042A00003C0412C512C3201481459046A047B0488
:1042B00010F024013501C12CD12C76018FB7F89470
:1042C000E98DFA8D908193FD1FC0DF01468A578AE0
:1042D000608E718EC40CD51CE61CF71CC28ED38E6A
:1042E000E48EF58E2D813E814F81588523AF34AF0A
:1042F00045AF56AFDF9629813A814B815C812D9382
:104300003D934D935C9313978FBF6A960FB6F894C5
:10431000DEBF0FBECDBFDF91CF91FF90EF90DF905A
:10432000CF90BF90AF909F908F907F906F905F9055
:104330004F90089560E070E0CB01F0CE60E070E057
:10434000CB013DCF60E070E0CB01A3CF809181092C
:104350008630D8F496E0899FF0011124E35AF64F95
:1043600020913C0130913D01318320834091F30E37
:104370005091F40E6091F50E7091F60E42835383C6
:10438000648375838F5F80938109089520913C0138
:1043900030913D0128173907D9F090933D01809362
:1043A0003C014093F30E5093F40E6093F50E70931E
:1043B000F60E825D9C4321F41092A40E10928109A6
:1043C00082E08093490181E08093BD091092AA0E9A
:1043D000089521E02093A40E6093A9097093AA097F
:1043E0008093AB099093AC0940E050E0BA01809112
:1043F000AE099091AF090C94C62160E070E080E2B4
:1044000091E40C94E92160E070E080E89FE30C9473
:10441000E9216DEC7CEC8CEC9DE30C94E92140E00F
:1044200050E0BA0182E99EE20E94C6211092A309DF
:104430001092A4091092A5091092A60981E0809318
:10444000A40E089580918E0883FD18C08091B10E4E
:10445000811114C0209136013091370180912C15C3
:1044600090912D15821793074CF40E94A62140E0ED
:1044700050E0BA0184EB9BE30C94C62181E0809369
:10448000A40E40E050E0BA0185E29BE30E94C62101
:104490008EE492E19093A3138093A2130C94D1879E
:1044A00040E050E0BA0182ED9CE30C94C621E0911B
:1044B0008109EE2389F0E150E093810986E0E89FCD
:1044C000F0011124E35AF64F4281538164817581D2
:1044D000808191810C94C6210C945022CF93DF935C
:1044E0008091AB0E882321F0DF91CF910C9457225D
:1044F0001092A90E8091F30E9091F40EA091F50EFA
:10450000B091F60E81309048A105B10540F01092AF
:10451000F30E1092F40E1092F50E1092F60EC0915A
:10452000F30E8091BB09181604F5282F082E000CF5
:10453000330B255031094C2F0C2E000C550B421714
:1045400053079CF0CBEFC80F85300CF4C0E08C2FE4
:104550000C2E000C990BAA0BBB0B8093F30E9093BF
:10456000F40EA093F50EB093F60EC0939B0ED0E020
:10457000C11112C08091490121E041E06AEF76E16A
:10458000811114C0CF5FDF5FD53091F788E0809351
:10459000BB09DF91CF910895C13061F48091490149
:1045A00020E041E06EEE76E1882361F38D2F0E94DA
:1045B000D4C7E8CFC23071F58091490120E041E0D5
:1045C00066EE76E18823F1F2F1CF8091490120E097
:1045D00041E06BED76E18823A9F2E8CF80914901B3
:1045E00020E041E069EC76E1882361F2DFCF809141
:1045F000490120E041E06CEB76E1882319F2D6CF47
:104600008091490120E041E06BEA76E1882309F4DA
:10461000B9CFCCCFC330C9F2C43001F3C53039F3C0
:10462000C63071F3C73009F0ADCF809149018823BE
:1046300009F4A8CF20E041E06EE976E1B7CF2F92F0
:104640003F924F925F926F927F928F929F92AF9222
:10465000BF92CF92DF92EF92FF920F931F93CF936F
:10466000DF931092A90E8091F30E9091F40EA09119
:10467000F50EB091F60E81309048A105B10540F0DD
:104680001092F30E1092F40E1092F50E1092F60E98
:10469000C091F30E8091B4091816DCF4282F082E6F
:1046A000000C330B215031094C2F0C2E000C550BF4
:1046B0004217530774F0CFEFC80F8C2F90E0B0E093
:1046C000A0E08093F30E9093F40EA093F50EB093B8
:1046D000F60E1092BD0980919B0EC81714F4C0937A
:1046E0009B0E80919B0E082E000C990B04962C2F8C
:1046F0000C2E000C330B8217930724F48CEF8C0FD5
:1047000080939B0ED0919B0E4D2E65E0562E5D0E34
:1047100073E0D72EEFE98E2EE4E19E2E86E0B82ED0
:10472000BD1ACC24C39485E0A82EAD1A84E0782E5F
:104730007D1A3D2C3D1A82E0682E6D1A2C2C2D1A04
:10474000D11134C08091AB0E811115C08091490107
:10475000882351F0642D619581E0C11180E024E04F
:1047600045EF54E10E9496DADF5F5D12E9CF87E002
:104770008093B40908C0C111E9CF0E9457228091EB
:10478000BD09882319F3DF91CF911F910F91FF90FD
:10479000EF90DF90CF90BF90AF909F908F907F90E1
:1047A0006F905F904F903F902F900895D130E1F53A
:1047B0008091AB0E811122C0809149018823A1F222
:1047C000DF9287EE8F931F92CF9281EB98E09F93B9
:1047D0008F9387EE94E19F938F932F9281E0C13066
:1047E00009F080E08F930E9427D98DB79EB70A9673
:1047F0000FB6F8949EBF0FBE8DBFB6CFC130E1F6A5
:10480000E12C10ECF12E09E714E420E030E040E860
:104810005FE361EB78E08EEE94E10E9477E08091B7
:10482000BD09882349F2AFCFD23009F008C1809189
:10483000AB0E811123C080914901882309F494CFE4
:10484000DF9287EE8F931F92CF9285EB98E09F9334
:104850008F9389ED94E19F938F936F9281E0C230A3
:1048600009F080E08F930E9427D98DB79EB70A96F2
:104870000FB6F8949EBF0FBE8DBF76CFC230D9F66B
:10488000E12C10ECF12E09E714E420E030E040E8E0
:104890005FE365EB78E080EE94E10E9477E0809141
:1048A000BD09882341F26FCF8091AB0E811123C0E7
:1048B00080914901882309F457CFDF9287EE8F93C7
:1048C0001F92CF9289EB98E09F938F938BEC94E1AA
:1048D0009F938F933F9281E0C33009F080E08F93E4
:1048E0000E9427D98DB79EB70A960FB6F8949EBF3F
:1048F0000FBE8DBF39CFC330D9F6E12C10ECF12EAD
:1049000009E714E420E030E040E85FE369EB78E099
:1049100082ED94E10E9477E08091BD09882341F205
:1049200032CF8091AB0E811123C080914901882341
:1049300009F41ACFDF9287EE8F931F92CF928DEBFF
:1049400098E09F938F938DEB94E19F938F937F9249
:1049500081E0C43009F080E08F930E9427D98DB7A1
:104960009EB70A960FB6F8949EBF0FBE8DBFFCCEC1
:10497000C430D9F6E12C10ECF12E09E714E420E064
:1049800030E040E85FE36DEB78E084EC94E10E9476
:1049900077E08091BD09882341F2F5CE8091AB0E7E
:1049A000811123C080914901882309F4DDCEDF9273
:1049B00087EE8F931F921F928DEA98E09F938F93BB
:1049C00083EB94E19F938F93AF9281E0C53009F020
:1049D00080E08F930E9427D98DB79EB70A960FB6B5
:1049E000F8949EBF0FBE8DBFBFCEC530D9F6E12C67
:1049F00010ECF12E09E714E420E030E0A9016DEAA3
:104A000078E088EB94E10E9477E08091BD098823EB
:104A100049F2B9CEC63019F5E12C10ECF12E09E7B8
:104A200014E420E030E0A90169EA78E089EA94E141
:104A30000E9477E08091BD09882389F0A4CED3300D
:104A400009F432CFD43009F46CCFD53009F4A6CFB5
:104A5000D63009F089CE8091AB0E8111DBCF8091E9
:104A60004901882309F480CEDF9287EE8F931F924D
:104A70001F9289EA98E09F938F939F928F92BF92A3
:104A800081E0C63009F080E08F930E9427D98DB76E
:104A90009EB70A960FB6F8949EBF0FBE8DBF64CE28
:104AA0002F923F924F925F926F927F928F929F923E
:104AB000AF92BF92CF92DF92EF92FF920F931F932C
:104AC000CF93DF9300D000D000D0CDB7DEB71092E7
:104AD000A90E8091F30E9091F40EA091F50EB09175
:104AE000F60E81309048A105B10540F01092F30E0A
:104AF0001092F40E1092F50E1092F60E4091F30EF5
:104B00004D838091B2091816CCF4282F082E000C82
:104B1000330B21503109042E000C550B421753075B
:104B20006CF081508D8390E0B0E0A0E08093F30EB4
:104B30009093F40EA093F50EB093F60E1092BD096B
:104B400080919B0E9D81981714F490939B0E8091F9
:104B50009B0E082E000C990B04964D81242F042ED9
:104B6000000C330B8217930724F4842F8450809316
:104B70009B0E80919B0E8E838A83982F9B5F9983D7
:104B800084E02E81821B8B8301E083E0382E432D4D
:104B9000421B4C8398E3C92E94E1D92E12E0121BDC
:104BA00033E5A32E34E1B32E4CE2E42E45E1F42E9E
:104BB0005BEE452E512C612C712C6CE5862E6AED36
:104BC000962E202E221A8E81811137C08091AB0E35
:104BD000811111C080914901882309F457C06A816D
:104BE000619581E02D81211180E024E04AE554E1C6
:104BF0000E9496DA4BC09D819111ECCF0E94572202
:104C00008091BD09882331F326960FB6F894DEBF54
:104C10000FBECDBFDF91CF911F910F91FF90EF900D
:104C2000DF90CF90BF90AF909F908F907F906F90CC
:104C30005F904F903F902F9008954E81413009F042
:104C40007AC08091AB0E81112BC0809149018823DD
:104C5000E9F089E79BE19F938F931F928BEE8F93EF
:104C60001F921F92FF92EF928CE494E19F938F9397
:104C70002F9281E09D81913009F080E08F930E9416
:104C800010D90FB6F894DEBF0FBECDBF2E812F5FB7
:104C90002E834981421397CF85E08093B209B4CF28
:104CA0008D81813091F68093A90E1092A50E1092FD
:104CB000A60E1092A70E1092A80E0E94A621309266
:104CC0004901B092020FA092010FF092000FE09202
:104CD000FF0E1092FB0E1092FC0E1092FD0E109221
:104CE000FE0E4092F70E5092F80E6092F90E7092FE
:104CF000FA0E80912C1590912D15092E000CAA0BFF
:104D0000BB0B8093F30E9093F40EA093F50EB0932B
:104D1000F60E90923D0180923C0189E79BE19093D1
:104D2000F20E8093F10E1092F00E8091BD0988234F
:104D300009F48BCF69CF9E81923009F065C08091D4
:104D4000AB0E81111AC080914901882309F49ECFCE
:104D50001F928FEF8F931F921F928FE998E09F937E
:104D60008F93DF92CF921F9381E04D81423009F003
:104D700080E08F930E9410D984CF2D81223019F7C3
:104D80000093A90E1092A50E1092A60E1092A70ED7
:104D90001092A80E2FEF30E050E040E06FE978E08D
:104DA00082E494E10E94E2E08091BD09882359F2F7
:104DB0002BCF8091AB0E81110FC0809149018823C8
:104DC00009F464CF81E02D81233009F080E023E0F5
:104DD00047E254E16C810CCF9D81933071F78CEDEB
:104DE00092E70E946AE08091BD09882331F30CCFDD
:104DF0004D81443099F489ED92E70E946AE08091F8
:104E0000BD09882359F000CF8E81833091F2843020
:104E100009F03CCF8091AB0E8111EACF809149011E
:104E2000882309F433CF81E09D81943009F080E03C
:104E300023E046E154E16B81DBCECF92DF92EF922B
:104E4000FF920F931F93CF93DF931092A90E80913F
:104E5000F30E9091F40EA091F50EB091F60E813004
:104E60009048A105B10540F01092F30E1092F40E97
:104E70001092F50E1092F60EC091F30E8091B009CB
:104E80001816DCF4282F082E000C330B21503109A2
:104E90004C2F0C2E000C550B4217530774F0CFEF1C
:104EA000C80F8C2F90E0B0E0A0E08093F30E9093B9
:104EB000F40EA093F50EB093F60E1092BD098091FA
:104EC0009B0EC81714F4C0939B0E80919B0E082E66
:104ED000000C990B04962C2F0C2E000C330B821710
:104EE000930724F48CEF8C0F80939B0ED0919B0E34
:104EF00085E0D82EDD0E14E01D1B03E00D1B82E0C3
:104F0000F82EFD1A81E0E82EED1ACD2EC194D111B4
:104F100029C08091AB0E811114C080914901882372
:104F200049F081E0C11180E024E04EEB53E16C2DAB
:104F30000E9496DADF5FDD12EACF85E08093B00948
:104F400008C0C111EACF0E9457228091BD09882371
:104F500021F3DF91CF911F910F91FF90EF90DF90A0
:104F6000CF900895D130E1F48091AB0E81110DC046
:104F7000809149018823F1F281E0C13009F080E09D
:104F800023E047EB53E16E2DD3CFC13089F78CEC92
:104F900099E20E946AE08091BD09882349F3D9CF44
:104FA000D23009F045C08091AB0E81110EC08091C6
:104FB0004901882309F4BECF81E0C23009F080E0C6
:104FC00023E040EB53E16F2DB3CFC23081F782ED88
:104FD00099E20E946AE08091BD09882341F3B9CF2C
:104FE0008091AB0E81110EC080914901882309F494
:104FF000A1CF81E0C33009F080E023E049EA53E12A
:10500000602F96CFC33081F788ED99E20E946AE065
:105010008091BD09882341F39CCFC43091F48EED7B
:1050200099E20E946AE08091BD09882351F091CFF6
:10503000D330B1F2D43009F07DCF8091AB0E811125
:10504000ECCF80914901882309F474CF81E0C4300A
:1050500009F080E023E040EA53E1612F69CFAF928D
:10506000BF92CF92DF92EF92FF920F931F93CF9355
:10507000DF938C017093AF096093AE091092A90E73
:105080008091F30E9091F40EA091F50EB091F60E72
:1050900081309048A105B10540F01092F30E1092B6
:1050A000F40E1092F50E1092F60EC091F30E809150
:1050B000AD091816DCF4282F082E000C330B2150F4
:1050C00031094C2F0C2E000C550B4217530774F06E
:1050D000CFEFC80F8C2F90E0B0E0A0E08093F30EEC
:1050E0009093F40EA093F50EB093F60E1092BD09B6
:1050F00080919B0EC81714F4C0939B0E80919B0E59
:10510000082E000C990B04962C2F0C2E000C330B40
:105110008217930724F48CEF8C0F80939B0ED09111
:105120009B0E85E0B82EBD0E81E094E0E92EED1ACD
:1051300093E0D92EDD1A92E0C92ECD1AA82EAD1A11
:10514000FD2EF1940130110591F10230110509F4A1
:1051500054C00115110509F074C0D11196C08823FF
:10516000B1F01C16A4F08091F30E9091F40EA09172
:10517000F50EB091F60E0196A11DB11D8093F30EB0
:105180009093F40EA093F50EB093F60ECF5F80913E
:10519000490121E041E069E973E181112AC0DF5F43
:1051A00080E0DB11CFCF85E08093AD098CC0D111B9
:1051B0006CC08823B1F01C16A4F08091F30E90917E
:1051C000F40EA091F50EB091F60E0196A11DB11D41
:1051D0008093F30E9093F40EA093F50EB093F60E19
:1051E000CF5F8091490121E041E062E973E18823CA
:1051F000B1F28F2D0E94D4C7D2CFD11146C08823DF
:10520000B1F01C16A4F08091F30E9091F40EA091D1
:10521000F50EB091F60E0196A11DB11D8093F30E0F
:105220009093F40EA093F50EB093F60ECF5F80919D
:10523000490121E041E06BE873E1882309F4AFCF35
:10524000D8CFD11122C08823B1F01C16A4F08091D0
:10525000F30E9091F40EA091F50EB091F60E01961A
:10526000A11DB11D8093F30E9093F40EA093F50E43
:10527000B093F60ECF5F80914901882309F48FCF58
:1052800021E041E062E873E1B4CFD13039F580919B
:10529000AB0E811110C080914901882309F47FCFA2
:1052A00081E0C13009F080E024E048E753E16A2D55
:1052B0000E9496DA74CFC13071F70E945722809114
:1052C000BD09882341F3DF91CF911F910F91FF908A
:1052D000EF90DF90CF90BF90AF900895D230E9F477
:1052E0008091AB0E81110EC080914901882309F491
:1052F00056CF81E0C23009F080E023E04EE653E172
:105300006C2DD6CFC23081F78DEF91E20E946AE01A
:105310008091BD09882341F3D6CFD330E9F4809141
:10532000AB0E81110EC080914901882309F437CF5B
:1053300081E0C33009F080E023E045E653E16D2DC4
:10534000B7CFC33081F783E092E20E946AE0809198
:10535000BD09882341F3B7CFD43009F020CF809125
:10536000AB0E81110EC080914901882309F417CF3B
:1053700081E0C43009F080E023E04AE553E16E2D7E
:1053800097CFC43081F789E092E20E946AE0809171
:10539000BD09882341F397CF6CE87EE290E080E07E
:1053A0000C942F2866E87EE281E090E00C942F2890
:1053B00060E87EE282E090E00C942F286DE17DE2CF
:1053C00083E090E00C942F282F923F924F925F92AF
:1053D0006F927F928F929F92AF92BF92CF92DF9205
:1053E000EF92FF920F931F93CF93DF931092A90E2A
:1053F0008091F30E9091F40EA091F50EB091F60EFF
:1054000081309048A105B10540F01092F30E109242
:10541000F40E1092F50E1092F60EC091F30E8091DC
:10542000A7091816DCF4282F082E000C330B215086
:1054300031094C2F0C2E000C550B4217530774F0FA
:10544000CFEFC80F8C2F90E0B0E0A0E08093F30E78
:105450009093F40EA093F50EB093F60E1092BD0942
:1054600080919B0EC81714F4C0939B0E80919B0EE5
:10547000082E000C990B04962C2F0C2E000C330BCD
:105480008217930724F48CEF8C0F80939B0ED0919E
:105490009B0E8D2E85E0382E3D0E15E01D1B01E084
:1054A00091E7C92E92E1D92E84E0F82EFD1A2BE760
:1054B000A22E22E1B22E3BEE432E512C612C712CF8
:1054C00082E0E82EED1A202E2D1A86E0982E9D1AE5
:1054D000D1112FC08091AB0E811110C08091490174
:1054E000882309F450C0682D619581E0C11180E0E6
:1054F00024E049EA52E10E9496DA45C0C111EECF9C
:105500000E9457228091BD09882341F3DF91CF91FA
:105510001F910F91FF90EF90DF90CF90BF90AF90D1
:105520009F908F907F906F905F904F903F902F90C3
:105530000895D13009F047C08091AB0E811131C080
:10554000809149018823F9F083E08F9387EE8F9350
:105550001F928AE08F9389E191E09F938F938DE969
:1055600092E19F938F932F9281E0C13009F080E008
:105570008F930E9410D98DB79EB70A960FB6F894F4
:105580009EBF0FBE8DBF0E94F0DA81113CC1D630A4
:1055900009F41CC187E0DF5F3D129ACF8093A70911
:1055A000B5CFC13069F627EE33E04AE050E069E15B
:1055B00071E083EA92E10E94E2E08091BD098823D4
:1055C00009F4BECFA3CFD23009F01FC18091AB0E3A
:1055D000811126C0809149018823A9F289E79BE1C6
:1055E0009F938F931F928BEE8F931F921F928CE24B
:1055F00095E19F938F938FE892E19F938F93EF9222
:1056000081E0C23009F080E08F930E9410D98DB7FD
:105610009EB70C960FB6F8949EBF0FBE8DBFB3CF4A
:10562000C230C1F60093A90E1092A50E1092A60EDC
:105630001092A70E1092A80E0E94A62183E08093DC
:10564000490186E992E19093020F8093010F8CE269
:1056500095E19093000F8093FF0E1092FB0E109235
:10566000FC0E1092FD0E1092FE0E4092F70E50921C
:10567000F80E6092F90E7092FA0E80912C159091AE
:105680002D15092E000CAA0BBB0B8093F30E9093E3
:10569000F40EA093F50EB093F60E8CE59AED909370
:1056A0003D0180933C0189E79BE19093F20E80934A
:1056B000F10E1092F00E8091BD09882309F48ACF73
:1056C00025CF8091AB0E811123C0809149018823A1
:1056D00009F459CF1F928FEF8F931F921F928FE97A
:1056E00098E09F938F93BF92AF9283E088198F9336
:1056F00081E0C33009F080E08F930E9410D98DB70C
:105700009EB70A960FB6F8949EBF0FBE8DBF3BCFD3
:10571000C330D9F60093A90E1092A50E1092A60ED2
:105720001092A70E1092A80E2FEF30E050E040E04C
:105730006FE978E085E892E10E94E2E08091BD099E
:10574000882319F2E3CE8091AB0E811123C08091A2
:105750004901882309F417CF83E08F9387EE8F9355
:105760001F928AE08F9387E191E09F938F93DF925E
:10577000CF92FF9281E0C43009F080E08F930E94C5
:1057800010D98DB79EB70A960FB6F8949EBF0FBE7C
:105790008DBFF9CEC430D9F627EE33E04AE050E0B1
:1057A00067E171E086E792E10E94E2E08091BD0945
:1057B000882369F2ABCEC530A9F58FE092E20E9452
:1057C0006AE08091BD09882369F1A0CE8091AB0E7B
:1057D000811110C080914901882309F4DBCE81E05A
:1057E000C63009F080E020E246E552E1692D0E94D2
:1057F00096DAD0CEC63071F70E9422228091BD0980
:10580000882341F383CE86E0C6CED33009F459CF46
:10581000D43009F498CFD53009F0B5CE8091AB0ED5
:105820008111C9CF80914901882309F4ACCE81E070
:10583000C53009F080E023E046E652E1612F5BCEFF
:105840009CE0899F802D112491E0980F90930B0F7D
:105850002CE0280F20930C0F40916C1530E02E5F48
:105860003F4F4217130609F0A4F420916E159217CA
:1058700080F4662341F08E5F0E9416D080910C0F59
:105880008E5F0E9416D080910C0F10926F1580933E
:1058900070150895CF93DF931F92CDB7DEB7809137
:1058A0007115811105C081E0809371150E949BCE16
:1058B00060913A1570913B1519829E012F5F3F4F01
:1058C0004FE088E395E10E9436CE0F90DF91CF91B3
:1058D00008959FEF980F993020F40E94D4DA81E068
:1058E00008950E94A7C2FBCF9FEF980F993010F444
:1058F0000C94D4DA0C94A7C2CF93DF93EC01FE0191
:105900008491882321F00E94742C2196F8CFDF9196
:10591000CF910895CF93DF93EC018991882319F0FB
:105920000E94742CFACFDF91CF910895AF92BF926D
:10593000CF92DF92EF92FF920F931F93CF93DF935B
:105940005C017B0130E020E0F501E20FF31FE49100
:10595000E11154C0F701AF014E195F098191811126
:10596000FACF04E110E0041B1109DD24D3942017C1
:10597000110619F014F082E0D82E8091391590E0CC
:105980006D2D70E06F5F7F4F0E94E6FBC62EC6E074
:10599000C60F80916C15C817A0F120916E154C2F81
:1059A0004B50550B2417150664F110926F15C093D8
:1059B0007015C5010E947C2CD1E0E114F10499F02E
:1059C0008AE30E94A7C252E0D5121DC0CC0D80917F
:1059D0006C15C81740F020916E154C2F4B50550B8D
:1059E0002417150694F4DF91CF911F910F91FF902A
:1059F000EF90DF90CF90BF90AF9008952F5F3F4F13
:105A0000A3CFD0E0DACFDD2371F3802F880F800F92
:105A1000880F80936F15C093701580E20E94A7C213
:105A2000C701DF91CF911F910F91FF90EF90DF9011
:105A3000CF90BF90AF900C948A2C8091AB0E8111C7
:105A40000C9457226091F30E7091F40E8091F50E34
:105A50009091F60E611571058105910569F10E941D
:105A60001BF22091A9093091AA094091AB095091EC
:105A7000AC090E947AF220918211309183114091F9
:105A80008411509185110E94C0F860938211709327
:105A90008311809384119093851183E090E00E949C
:105AA0007B1B81E0809349011092F30E1092F40E5B
:105AB0001092F50E1092F60E80914901882349F05C
:105AC00082E891E10E94D3D6BC0181E593E10C9478
:105AD000962C08952F923F924F925F926F927F92F1
